:100000000C9434000C943E000C943E000C943E0082
:100010000C943E000C943E000C943E000C943E0068
:100020000C943E000C943E000C943E000C943E0058
:100030000C943E000C943E000C943E000C943E0048
:100040000C943E000C943E000C943E000C943E0038
:100050000C943E000C943E000C943E000C943E0028
:100060000C943E000C943E0011241FBECFEFD8E04C
:10007000DEBFCDBF0E9485010C94AE010C94000040
:10008000ECE7F0E0808180668083EAE7F0E0808141
:1000900087688083089584B18C6284B98CB581654A
:1000A0008CBD08958EBD0DB407FEFDCF08951EBC16
:1000B0000DB407FEFDCF1EBC0DB407FEFDCF1EBC68
:1000C0000DB407FEFDCF1EBC0DB407FEFDCF089595
:1000D000806E8EBD0DB407FEFDCF2EBD0DB407FEA4
:1000E000FDCF4EBD0DB407FEFDCF6EBD0DB407FEB6
:1000F000FDCF089582E090EE9EBD0DB407FEFDCFCA
:100100001EBC0DB407FEFDCF1EBC0DB407FEFDCF17
:100110001EBC0DB407FEFDCF815071F70895CF933B
:10012000C82F0E947A000E945700C13009F4B5C060
:1001300008F47EC0C23009F440C0C330E1F587EE58
:100140008EBD0DB407FEFDCF8FEF8EBD0DB407FE43
:10015000FDCF8FEF8EBD0DB407FEFDCF8FEF8EBDAF
:100160000DB407FEFDCF87EE8EBD0DB407FEFDCFAB
:100170008FEF8EBD0DB407FEFDCF8FEF8EBD0DB49A
:1001800007FEFDCF8FEF8EBD0DB407FEFDCF87EECE
:100190008EBD0DB407FEFDCF8FEF8EBD0DB407FEF3
:1001A000FDCF8FEF8EBD0DB407FEFDCF8FEF8EBD5F
:1001B0000DB407FEFDCFCF91089587EE8EBD0DB42F
:1001C00007FEFDCF8FEF8EBD0DB407FEFDCF8FEF85
:1001D0008EBD0DB407FEFDCF8FEF8EBD0DB407FEB3
:1001E000FDCF87EE8EBD0DB407FEFDCF8FEF8EBD28
:1001F0000DB407FEFDCF8FEF8EBD0DB407FEFDCF12
:100200008FEF8EBD0DB407FEFDCF80EE8EBD0DB419
:1002100007FEFDCF1EBC0DB407FEFDCF1EBC0DB406
:1002200007FEFDCF1EBC0DB407FEFDCFCF91089594
:1002300080EE8EBD0DB407FEFDCF1EBC0DB407FED3
:10024000FDCF1EBC0DB407FEFDCF1EBC0DB407FED6
:10025000FDCF80EE8EBD0DB407FEFDCF1EBC0DB4EC
:1002600007FEFDCF1EBC0DB407FEFDCF1EBC0DB4B6
:1002700007FEFDCF80EE8EBD0DB407FEFDCF1EBC88
:100280000DB407FEFDCF1EBC0DB407FEFDCF1EBC96
:100290000DB407FEFDCFCF91089587EE8EBD0DB44E
:1002A00007FEFDCF8FEF8EBD0DB407FEFDCF8FEFA4
:1002B0008EBD0DB407FEFDCF8FEF8EBD0DB407FED2
:1002C000FDCF80EE8EBD0DB407FEFDCF1EBC0DB47C
:1002D00007FEFDCF1EBC0DB407FEFDCF1EBC0DB446
:1002E00007FEFDCF80EE8EBD0DB407FEFDCF1EBC18
:1002F0000DB407FEFDCF1EBC0DB407FEFDCF1EBC26
:100300000DB407FEFDCFCF91089584B18C6284B9FE
:100310008CB581658CBD80917C00806680937C006B
:1003200080917A00876880937A008FB780688FBF4A
:10033000C1EC80917A00806480937A0080917A0089
:1003400086FDFCCF809179008C9F812D11248295B0
:100350008695869583700E948F00EBCFF894FFCF2F
:00000001FF
