:100000000C9434000C943E000C943E000C943E0082
:100010000C943E000C943E000C943E000C943E0068
:100020000C943E000C943E000C943E000C943E0058
:100030000C943E000C943E000C943E000C943E0048
:100040000C943E000C943E000C943E000C943E0038
:100050000C943E000C943E000C943E000C943E0028
:100060000C943E000C943E0011241FBECFEFD8E04C
:10007000DEBFCDBF0E9489000C9409010C940000E2
:1000800084B18C6284B98CB581658CBD08958EBDB8
:100090000DB407FEFDCF08951EBC0DB407FEFDCFC5
:1000A0001EBC0DB407FEFDCF1EBC0DB407FEFDCF78
:1000B0001EBC0DB407FEFDCF0895806E8EBD0DB43D
:1000C00007FEFDCF2EBD0DB407FEFDCF4EBD0DB416
:1000D00007FEFDCF6EBD0DB407FEFDCF1EBC0DB4F7
:1000E00007FEFDCF089580EE8EBD0DB407FEFDCF57
:1000F0001EBC0DB407FEFDCF1EBC0DB407FEFDCF28
:100100001EBC0DB407FEFDCF1EBC0DB407FEFDCF17
:10011000089584B18C6284B98CB581658CBD0E94D0
:100120004C0020E040E06FEF8FE00E945D000E94F5
:1001300073002FEF83ED90E3215080409040E1F772
:1001400000C0000020E04FEF60E08FE00E945D0003
:100150000E9473002FEF83ED90E321508040904088
:10016000E1F700C000002FEF40E060E08FE00E9468
:100170005D000E9473002FEF83ED90E321508040DB
:100180009040E1F700C0000020E04FEF6FEF8FE0FC
:100190000E945D000E9473002FEF83ED90E32150D9
:1001A00080409040E1F700C000002FEF4FEF60E08B
:1001B0008FE00E945D000E9473002FEF83ED90E3BB
:1001C000215080409040E1F700C000002FEF40E058
:1001D0006FEF8FE00E945D000E9473002FEF83EDB0
:1001E00090E3215080409040E1F700C000002FEFE5
:1001F0004FEF6FEF8FE00E945D000E9473002FEFC2
:1002000083ED90E3215080409040E1F700C0000072
:0602100088CFF894FFCF37
:00000001FF
