:100000000C9434000C9451000C9451000C94510049
:100010000C9451000C9451000C9451000C9451001C
:100020000C9451000C9451000C9451000C9451000C
:100030000C9451000C9451000C9451000C945100FC
:100040000C9451000C9451000C9416010C94510026
:100050000C9451000C9451000C9451000C945100DC
:100060000C9451000C94510011241FBECFEFD8E026
:10007000DEBFCDBF11E0A0E0B1E0E2E5F4E002C0F8
:1000800005900D92AC33B107D9F721E0ACE3B1E0B4
:1000900001C01D92A035B207E1F70E9411020C9435
:1000A00027020C9400000F931F93CF93DF938C01D2
:1000B000FC016081062E000C770B81E091E00E942C
:1000C0001C02EC01F8016181062E000C770B81E027
:1000D00091E00E941C02C150D140C295C07F815066
:1000E00091408F708C2BDF91CF911F910F910895CC
:1000F00080E00E940C0280E00E940C0280E00E94DE
:100100000C0280E00C940C021F93CF93DF93162F08
:10011000D42FC22F806E0E940C02812F0E940C02ED
:100120008D2F0E940C028C2F0E940C0280E0DF9128
:10013000CF911F910C940C0220E040E060E080E041
:100140000E94840020E040E060E080E00C948400A5
:10015000FF920F931F93CF93DF93F82E062F142F48
:10016000C22F822F0E94A1010E94F60120E040E0F0
:1001700060E080E00E94840020E040E060E080E0F9
:100180000E9484002C2F30E0CCE3D1E0F901EE0F87
:10019000FF1FE20FF31FE45CFE4FF0820183128326
:1001A0000E9478002A814981688187E00E9484004A
:1001B0002D814C816B8187E00E94840028854F81CE
:1001C0006E8187E0DF91CF911F910F91FF900C948A
:1001D0008400CF93DF9380914601833209F58091AB
:1001E0004D01843431F080E291E0DF91CF910C94A5
:1001F00092018BE491E00E945300D82F89E491E0B2
:100200000E945300C82F87E491E00E945300209180
:100210004E0126534D2F6C2FDF91CF910C94A800E7
:1002200082E191E0DF91CF910C9492011F920F92A5
:100230000FB60F9211242F933F934F935F936F93B9
:100240007F938F939F93AF93BF93CF93EF93FF933E
:10025000C091C600CA30A9F1CD3099F18091450115
:10026000C83019F1CF3709F1893068F48C2F0E941A
:100270008401E091450181E08E0F80934501F0E01B
:10028000EA5BFE4FC083FF91EF91CF91BF91AF9199
:100290009F918F917F916F915F914F913F912F919E
:1002A0000F900FBE0F901F901895882361F387E37E
:1002B00091E00E9492018091450181508093450117
:1002C000E2CF0E94F60181E0809300010E94E900E4
:1002D0008AE0E6E4F1E0DF011D928A95E9F71092E9
:1002E0004501D1CFE1ECF0E080818E698083E2ECC2
:1002F000F0E08081877C80831092C50088E0809345
:10030000C40008950C9472019091C00095FFFCCF39
:100310008093C60008958091C00087FFFCCF809134
:10032000C6000895FC012081222351F0319690915E
:10033000C00095FFFCCF2093C60021912111F7CF7B
:100340000895E82FE295EF70F0E0EF5FFE4F208117
:100350009091C00095FFFCCF2093C6008F70E82FCE
:10036000F0E0EF5FFE4F90818091C00085FFFCCFF1
:100370009093C60008959C01FC01EF2FFF27E295A2
:10038000EF70EF5FFE4F80819091C00095FFFCCF32
:100390008093C600E32FFF27EF70FF27EF5FFE4F2C
:1003A00080819091C00095FFFCCF8093C600F90139
:1003B000F295E295EF70EF27FF70EF27EF70FF27C0
:1003C000EF5FFE4F80819091C00095FFFCCF80933E
:1003D000C6002F703327F901EF5FFE4F90818091A7
:1003E000C00085FFFCCF9093C60008958091C000A7
:1003F00085FFFCCF8AE08093C6008091C00085FF16
:10040000FCCF8DE08093C600089584B18C6284B9DE
:100410008CB581658CBD08958EBD0DB407FEFDCFF2
:100420000895209A0E9405020E9482010E9478008D
:100430008FB780688FBFFFCFFC018191861721F0B5
:100440008823D9F7992708953197CF010895F89413
:02045000FFCFDC
:10045200013031323334353637383961626364659D
:1004620066004D697373696E67202723270D0A00A2
:10047200496E70757420666F726D617420696E7654
:0C048200616C69640D0A0008200800008D
:00000001FF
