:100000000C9434000C9451000C9451000C94510049
:100010000C9451000C9451000C9451000C9451001C
:100020000C9451000C9451000C9451000C948C01D0
:100030000C9451000C9451000C9451000C945100FC
:100040000C9451000C9451000C94BC010C94510080
:100050000C9451000C9451000C9451000C945100DC
:100060000C9451000C94510011241FBECFEFD8E026
:10007000DEBFCDBF11E0A0E0B1E0E0E8F6E002C0F5
:1000800005900D92A433B107D9F721E0A4E3B1E0C4
:1000900001C01D92AD34B207E1F70E94CB020C946F
:1000A0003E030C9400000F931F93CF93DF938C01BA
:1000B000FC01608170E081E091E00E942A03EC0184
:1000C000F801618170E081E091E00E942A03C15053
:1000D000D140C295C07F815091408F708C2BDF91B1
:1000E000CF911F910F91089580E00E94C60280E099
:1000F0000E94C60280E00E94C60280E00C94C60204
:100100001F93CF93DF93C62FD42F122F806E0E94A0
:10011000C602812F0E94C6028D2F0E94C6028C2F1C
:10012000DF91CF911F910C94C60280E00E94C6021D
:1001300080E00C94C602CF93DF9330E0C4E3D1E0BB
:10014000F901EE0FFF1F2E0F3F1FF901EC5CFE4F70
:100150008083618342830E9474002A81498168817F
:1001600087E00E9480002D814C816B8187E00E9496
:10017000800028854F816E8187E00E94800080E0AA
:100180000E94C60280E0DF91CF910C94C602CF930B
:10019000DF93EFE6F0E080818D7F808385E491E05E
:1001A0000E945300D82F83E491E00E945300C82F8F
:1001B00081E491E00E9453002091480126534D2F85
:1001C0006C2FDF91CF910C949B001F93CF93DF9303
:1001D000C82FD62F142F0E947400212F4D2F6C2F63
:1001E00087E00E948000212F4D2F6C2F87E00E9416
:1001F0008000212F4D2F6C2F87E00E94800080E02F
:100200000E94C60280E0DF91CF911F910C94C6023C
:1002100080958535A0F08A3A48F08A5A682F660F93
:10022000860F682F609540E00C94E5008555682F97
:10023000660F680F462F409580E00C94E500682F0C
:10024000660F860F482F60E080950C94E500809142
:100250003E01882331F080916F00826080936F00AF
:1002600008950C94C700CF9310923E0180914001F5
:10027000833219F081E0CF910895C0914101C634D5
:1002800011F1E2E4F1E081E00BC09FEB9C0F9630AE
:1002900018F0C053CA3070F78F5F8C3041F0C191B5
:1002A000893098F3C111E6CF8F5F8C30C1F7809110
:1002B00047018434F9F690914801965381E09330D8
:1002C000D0F680E0D8CF62E171E081E491E00E9455
:1002D0003503892BB1F681E080933E0189E0E4E3A8
:1002E000F1E0DF011D928A95E9F780E0C4CFE0E8F4
:1002F000F0E08081806C8083E1E8F0E080818960BB
:100300008083109285001092840084E294EF909391
:1003100089008093880008951F920F920FB60F9264
:1003200011242F933F934F935F936F937F938F93FA
:100330009F93AF93BF93EF93FF9380913D0190E024
:1003400001966FEF70E00E94020380933D0180915F
:100350003D010E940801FF91EF91BF91AF919F91E4
:100360008F917F916F915F914F913F912F910F905E
:100370000FBE0F901F9018951F920F920FB60F92FD
:1003800011242F933F934F935F936F937F938F939A
:100390009F93AF93BF93CF93EF93FF93C091C6000A
:1003A000CA3041F1CD3031F180913F01C830B1F018
:1003B000CF37A1F08C30D0F1FF91EF91CF91BF9169
:1003C000AF919F918F917F916F915F914F913F91ED
:1003D0002F910F900FBE0F901F901895882361F3F7
:1003E00080E391E00E944C0280913F018150809314
:1003F0003F01E2CF0E94B00281E0809300010E94A1
:100400003301811124C080913E018823E9F080915D
:100410006F00826080936F008DE0E0E4F1E0DF0127
:100420001D928A95E9F710923F01C6CF8C2F0E944A
:100430003E02E0913F0181E08E0F80933F01F0E0AA
:10044000E05CFE4FC083B8CF0E94C700E5CF8EE1CD
:1004500091E00E944C02E0CFE1ECF0E080818E69F7
:100460008083E2ECF0E08081877C80831092C5007D
:1004700088E08093C40008950C942C029091C000F1
:1004800095FFFCCF8093C60008958091C00087FF40
:10049000FCCF8091C6000895FC012081222351F0F9
:1004A00031969091C00095FFFCCF2093C60021911A
:1004B0002111F7CF0895E82FE295EF70F0E0EF5F9C
:1004C000FE4F20819091C00095FFFCCF2093C60085
:1004D0008F70E82FF0E0EF5FFE4F90818091C000B9
:1004E00085FFFCCF9093C60008959C01FC01EF2F7F
:1004F000FF27E295EF70EF5FFE4F80819091C00083
:1005000095FFFCCF8093C600E32FFF27EF70FF27F6
:10051000EF5FFE4F80819091C00095FFFCCF8093EC
:10052000C600F901F295E295EF70EF27FF70EF2713
:10053000EF70FF27EF5FFE4F80819091C00095FF25
:10054000FCCF8093C6002F703327F901EF5FFE4F79
:1005500090818091C00085FFFCCF9093C6000895E4
:100560008091C00085FFFCCF8AE08093C600809117
:10057000C00085FFFCCF8DE08093C600089584B154
:100580008C6284B98CB581658CBD08958EBD0DB427
:1005900007FEFDCF0895209A0E94BF020E943C02F0
:1005A00080918000806C80938000809181008960C0
:1005B00080938100109285001092840084E294EF71
:1005C00090938900809388008FB780688FBF0E94C6
:1005D000740020E040E060E080E00E949B0021E0A9
:1005E00040E060E080E00E949B0022E040E060E0AC
:1005F00080E00E949B0080E00E94C60280E00E9492
:10060000C602FFCF97FB072E16F4009407D077FDA4
:1006100009D00E94160307FC05D03EF49095819501
:100620009F4F0895709561957F4F0895AA1BBB1B3E
:1006300051E107C0AA1FBB1FA617B70710F0A61BE2
:10064000B70B881F991F5A95A9F780959095BC0103
:10065000CD010895FC018191861721F08823D9F7F7
:10066000992708953197CF010895FB01DC018D9101
:10067000019080190110D9F3990B0895F894FFCFD8
:10068000013031323334353637383961626364656D
:10069000660046554C4C5241494E424F5700466FFA
:1006A000726D61743A20496E76616C69640D0A005E
:0406B0000820080016
:00000001FF
