:100000000C9434000C9451000C9451000C94510049
:100010000C9451000C9451000C9451000C9451001C
:100020000C9451000C9451000C9451000C9451000C
:100030000C9451000C9451000C9451000C945100FC
:100040000C9451000C9451000C9451000C945100EC
:100050000C9451000C9451000C9451000C945100DC
:100060000C9451000C94510011241FBECFEFD8E026
:10007000DEBFCDBF11E0A0E0B1E0EAE8F3E002C0EE
:1000800005900D92A231B107D9F721E0A2E1B1E0CC
:1000900001C01D92AD31B207E1F70E9406010C9438
:1000A000C3010C9400000F931F93CF93DF938C0137
:1000B000FC01608170E080E091E00E94B801EC01F9
:1000C000F801618170E080E091E00E94B801C050C9
:1000D000D140C295C07F805091408F708C2BDF91B2
:1000E000CF911F910F91089580E00E94010180E05F
:1000F0000E94010180E00E94010180E00C94010156
:100100001F93CF93DF93C62FD42F122F806E0E94A0
:100110000101812F0E9401018D2F0E9401018C2F6E
:10012000DF91CF911F910C94010180E00E940101A9
:1001300080E00C940101CF93DF930E947400C2E130
:10014000D1E02A81498168818FE10E9480002D8160
:100150004C816B818FE10E94800028854F816E81E8
:100160008FE10E94800080E00E94010180E0DF9129
:10017000CF910C940101ECE7F0E0808180668083F0
:10018000EAE7F0E0808187688083089529B130E054
:10019000082E02C0359527950A94E2F720FD0895B0
:1001A0002FEF30E742E0215030404040E1F700C0FF
:1001B000000029B130E0082E02C0359527950A9439
:1001C000E2F720FDECCF21E030E002C0220F331F28
:1001D0008A95E2F78FEF99EF40E0815090404040E0
:1001E000E1F700C0000089B190E082239323892BBE
:1001F00089F3089584B18C6284B98CB581658CBD16
:1002000008958EBD0DB407FEFDCF089580917C004A
:10021000806680937C0080917A00876880937A0062
:100220000E94FA000E9474000E949B0080E00E94DD
:10023000010180E00E940101C3E0D0E080917A00DA
:10024000806480937A0080917A0086FDFCCFE091F3
:1002500079004A991EC04A9B35C080911B0190E0ED
:100260000196BE010E949001AC0180931B01909108
:100270001C01292F30E0C901880F991F280F391F51
:100280002E5E3E4FD901A40FB51FEC930E949B0038
:10029000D5CF4C9B06C090911C0140911B0150E0B2
:1002A000E8CF4C9B26C080911C0190E00196BE01D6
:1002B0000E949001982F80931C0110921B0140E036
:1002C00050E0D7CF2FEF80E792E021508040904060
:1002D000E1F700C000004A99C0CF2FEF89EF90E00E
:1002E000215080409040E1F700C000004A9BF5CFCC
:1002F000B4CF2FEF80E792E0215080409040E1F7AB
:1003000000C000004C99CFCF2FEF89EF90E0215033
:1003100080409040E1F700C000004C9BF5CFC3CF78
:1003200097FB072E16F4009407D077FD09D00E94A2
:10033000A40107FC05D03EF4909581959F4F089548
:10034000709561957F4F0895AA1BBB1B51E107C0B3
:10035000AA1FBB1FA617B70710F0A61BB70B881F55
:10036000991F5A95A9F780959095BC01CD010895E4
:10037000FC018191861721F08823D9F799270895E8
:0A0380003197CF010895F894FFCFE4
:10038A003031323334353637383961626364656601
:02039A00000061
:00000001FF
