:100000000C9434000C9446000C9446000C9446006A
:100010000C9446000C9446000C9446000C94460048
:100020000C9446000C9446000C9446000C949901E4
:100030000C9446000C9446000C9446000C94460028
:100040000C9446000C9446000C9446000C94460018
:100050000C9446000C9446000C9446000C94460008
:100060000C9446000C94460011241FBECFEFD8E03C
:10007000DEBFCDBF21E0A0E0B1E001C01D92A13004
:10008000B207E1F70E94A8010C94D7010C9400007C
:10009000E0E8F0E08081806C8083E1E8F0E080813E
:1000A0008C60808310928500109284008CEF99E41C
:1000B0009093890080938800EFE6F0E08081826071
:1000C0008083089584B18C6284B98CB581658CBDC0
:1000D00008958EBD0DB407FEFDCF08951EBC0DB46E
:1000E00007FEFDCF1EBC0DB407FEFDCF1EBC0DB438
:1000F00007FEFDCF1EBC0DB407FEFDCF0895806E38
:100100008EBD0DB407FEFDCF2EBD0DB407FEFDCF95
:100110004EBD0DB407FEFDCF6EBD0DB407FEFDCF85
:10012000089582E090EE9EBD0DB407FEFDCF1EBC8B
:100130000DB407FEFDCF1EBC0DB407FEFDCF1EBCE7
:100140000DB407FEFDCF815071F70895CF93C82FEE
:100150000E946E00C13009F4B5C008F47CC0C23002
:1001600009F442C0C33099F580EE8EBD0DB407FE90
:10017000FDCF1EBC0DB407FEFDCF1EBC0DB407FEA7
:10018000FDCF1EBC0DB407FEFDCF80EE8EBD0DB4BD
:1001900007FEFDCF1EBC0DB407FEFDCF1EBC0DB487
:1001A00007FEFDCF1EBC0DB407FEFDCF80EE8EBD59
:1001B0000DB407FEFDCF1EBC0DB407FEFDCF1EBC67
:1001C0000DB407FEFDCF1EBC0DB407FEFDCF0E948F
:1001D00091002FEF84E39CE0215080409040E1F7B4
:1001E00000C00000CF91089580EE8EBD0DB407FED3
:1001F000FDCF1EBC0DB407FEFDCF1EBC0DB407FE27
:10020000FDCF1EBC0DB407FEFDCF80EE8EBD0DB43C
:1002100007FEFDCF1EBC0DB407FEFDCF1EBC0DB406
:1002200007FEFDCF1EBC0DB407FEFDCF87EE8EBDD1
:100230000DB407FEFDCF8FEF8EBD0DB407FEFDCFD1
:100240008FEF8EBD0DB407FEFDCF8FEF8EBD0DB4C9
:1002500007FEFDCFBCCF87EE8EBD0DB407FEFDCFF0
:100260008FEF8EBD0DB407FEFDCF8FEF8EBD0DB4A9
:1002700007FEFDCF8FEF8EBD0DB407FEFDCF80EEE4
:100280008EBD0DB407FEFDCF1EBC0DB407FEFDCF25
:100290001EBC0DB407FEFDCF1EBC0DB407FEFDCF86
:1002A00080EE8EBD0DB407FEFDCF1EBC0DB407FE63
:1002B000FDCF1EBC0DB407FEFDCF1EBC0DB407FE66
:1002C000FDCF85CF80EE8EBD0DB407FEFDCF1EBCE9
:1002D0000DB407FEFDCF1EBC0DB407FEFDCF1EBC46
:1002E0000DB407FEFDCF87EE8EBD0DB407FEFDCF2A
:1002F0008FEF8EBD0DB407FEFDCF8FEF8EBD0DB419
:1003000007FEFDCF8FEF8EBD0DB407FEFDCF80EE53
:100310008EBD0DB407FEFDCF1EBC0DB407FEFDCF94
:100320001EBC0DB407FEFDCF1EBC0DB407FEFDCFF5
:100330004ECF1F920F920FB60F9211248F9381E030
:10034000809300018F910F900FBE0F901F90189512
:1003500080918000806C80938000809181008C600F
:100360008093810010928500109284008CEF99E4B4
:10037000909389008093880080916F0082608093C1
:100380006F0084B18C6284B98CB581658CBD8FB7E8
:1003900080688FBFC0E0809100018130E1F78C2F31
:1003A0000E94A600CF5FC37010920001F4CFF894B2
:0203B000FFCF7D
:00000001FF
